{
  "_format": "hh-sol-artifact-1",
  "contractName": "MyEpicNFT",
  "sourceName": "contracts/MyEpicNFT.sol",
  "abi": [
    {
      "inputs": [
        {
          "internalType": "uint256",
          "name": "_maxNFTs",
          "type": "uint256"
        }
      ],
      "stateMutability": "nonpayable",
      "type": "constructor"
    },
    {
      "anonymous": false,
      "inputs": [
        {
          "indexed": true,
          "internalType": "address",
          "name": "owner",
          "type": "address"
        },
        {
          "indexed": true,
          "internalType": "address",
          "name": "approved",
          "type": "address"
        },
        {
          "indexed": true,
          "internalType": "uint256",
          "name": "tokenId",
          "type": "uint256"
        }
      ],
      "name": "Approval",
      "type": "event"
    },
    {
      "anonymous": false,
      "inputs": [
        {
          "indexed": true,
          "internalType": "address",
          "name": "owner",
          "type": "address"
        },
        {
          "indexed": true,
          "internalType": "address",
          "name": "operator",
          "type": "address"
        },
        {
          "indexed": false,
          "internalType": "bool",
          "name": "approved",
          "type": "bool"
        }
      ],
      "name": "ApprovalForAll",
      "type": "event"
    },
    {
      "anonymous": false,
      "inputs": [
        {
          "indexed": false,
          "internalType": "uint256",
          "name": "_fromTokenId",
          "type": "uint256"
        },
        {
          "indexed": false,
          "internalType": "uint256",
          "name": "_toTokenId",
          "type": "uint256"
        }
      ],
      "name": "BatchMetadataUpdate",
      "type": "event"
    },
    {
      "anonymous": false,
      "inputs": [
        {
          "indexed": false,
          "internalType": "uint256",
          "name": "_tokenId",
          "type": "uint256"
        }
      ],
      "name": "MetadataUpdate",
      "type": "event"
    },
    {
      "anonymous": false,
      "inputs": [
        {
          "indexed": false,
          "internalType": "address",
          "name": "sender",
          "type": "address"
        },
        {
          "indexed": false,
          "internalType": "uint256",
          "name": "tokenId",
          "type": "uint256"
        }
      ],
      "name": "NewEpicNFTMinted",
      "type": "event"
    },
    {
      "anonymous": false,
      "inputs": [
        {
          "indexed": true,
          "internalType": "address",
          "name": "from",
          "type": "address"
        },
        {
          "indexed": true,
          "internalType": "address",
          "name": "to",
          "type": "address"
        },
        {
          "indexed": true,
          "internalType": "uint256",
          "name": "tokenId",
          "type": "uint256"
        }
      ],
      "name": "Transfer",
      "type": "event"
    },
    {
      "inputs": [
        {
          "internalType": "address",
          "name": "to",
          "type": "address"
        },
        {
          "internalType": "uint256",
          "name": "tokenId",
          "type": "uint256"
        }
      ],
      "name": "approve",
      "outputs": [],
      "stateMutability": "nonpayable",
      "type": "function"
    },
    {
      "inputs": [
        {
          "internalType": "address",
          "name": "owner",
          "type": "address"
        }
      ],
      "name": "balanceOf",
      "outputs": [
        {
          "internalType": "uint256",
          "name": "",
          "type": "uint256"
        }
      ],
      "stateMutability": "view",
      "type": "function"
    },
    {
      "inputs": [
        {
          "internalType": "uint256",
          "name": "tokenId",
          "type": "uint256"
        }
      ],
      "name": "getApproved",
      "outputs": [
        {
          "internalType": "address",
          "name": "",
          "type": "address"
        }
      ],
      "stateMutability": "view",
      "type": "function"
    },
    {
      "inputs": [],
      "name": "getMaxNFTs",
      "outputs": [
        {
          "internalType": "uint256",
          "name": "",
          "type": "uint256"
        }
      ],
      "stateMutability": "view",
      "type": "function"
    },
    {
      "inputs": [],
      "name": "getMintedNFTs",
      "outputs": [
        {
          "internalType": "uint256",
          "name": "",
          "type": "uint256"
        }
      ],
      "stateMutability": "view",
      "type": "function"
    },
    {
      "inputs": [
        {
          "internalType": "address",
          "name": "owner",
          "type": "address"
        },
        {
          "internalType": "address",
          "name": "operator",
          "type": "address"
        }
      ],
      "name": "isApprovedForAll",
      "outputs": [
        {
          "internalType": "bool",
          "name": "",
          "type": "bool"
        }
      ],
      "stateMutability": "view",
      "type": "function"
    },
    {
      "inputs": [],
      "name": "makeAnEpicNFT",
      "outputs": [],
      "stateMutability": "nonpayable",
      "type": "function"
    },
    {
      "inputs": [],
      "name": "name",
      "outputs": [
        {
          "internalType": "string",
          "name": "",
          "type": "string"
        }
      ],
      "stateMutability": "view",
      "type": "function"
    },
    {
      "inputs": [
        {
          "internalType": "uint256",
          "name": "tokenId",
          "type": "uint256"
        }
      ],
      "name": "ownerOf",
      "outputs": [
        {
          "internalType": "address",
          "name": "",
          "type": "address"
        }
      ],
      "stateMutability": "view",
      "type": "function"
    },
    {
      "inputs": [
        {
          "internalType": "uint256",
          "name": "tokenId",
          "type": "uint256"
        }
      ],
      "name": "pickRandomFirstWord",
      "outputs": [
        {
          "internalType": "string",
          "name": "",
          "type": "string"
        }
      ],
      "stateMutability": "view",
      "type": "function"
    },
    {
      "inputs": [
        {
          "internalType": "uint256",
          "name": "tokenId",
          "type": "uint256"
        }
      ],
      "name": "pickRandomSecondWord",
      "outputs": [
        {
          "internalType": "string",
          "name": "",
          "type": "string"
        }
      ],
      "stateMutability": "view",
      "type": "function"
    },
    {
      "inputs": [
        {
          "internalType": "uint256",
          "name": "tokenId",
          "type": "uint256"
        }
      ],
      "name": "pickRandomThirdWord",
      "outputs": [
        {
          "internalType": "string",
          "name": "",
          "type": "string"
        }
      ],
      "stateMutability": "view",
      "type": "function"
    },
    {
      "inputs": [
        {
          "internalType": "address",
          "name": "from",
          "type": "address"
        },
        {
          "internalType": "address",
          "name": "to",
          "type": "address"
        },
        {
          "internalType": "uint256",
          "name": "tokenId",
          "type": "uint256"
        }
      ],
      "name": "safeTransferFrom",
      "outputs": [],
      "stateMutability": "nonpayable",
      "type": "function"
    },
    {
      "inputs": [
        {
          "internalType": "address",
          "name": "from",
          "type": "address"
        },
        {
          "internalType": "address",
          "name": "to",
          "type": "address"
        },
        {
          "internalType": "uint256",
          "name": "tokenId",
          "type": "uint256"
        },
        {
          "internalType": "bytes",
          "name": "data",
          "type": "bytes"
        }
      ],
      "name": "safeTransferFrom",
      "outputs": [],
      "stateMutability": "nonpayable",
      "type": "function"
    },
    {
      "inputs": [
        {
          "internalType": "address",
          "name": "operator",
          "type": "address"
        },
        {
          "internalType": "bool",
          "name": "approved",
          "type": "bool"
        }
      ],
      "name": "setApprovalForAll",
      "outputs": [],
      "stateMutability": "nonpayable",
      "type": "function"
    },
    {
      "inputs": [
        {
          "internalType": "bytes4",
          "name": "interfaceId",
          "type": "bytes4"
        }
      ],
      "name": "supportsInterface",
      "outputs": [
        {
          "internalType": "bool",
          "name": "",
          "type": "bool"
        }
      ],
      "stateMutability": "view",
      "type": "function"
    },
    {
      "inputs": [],
      "name": "symbol",
      "outputs": [
        {
          "internalType": "string",
          "name": "",
          "type": "string"
        }
      ],
      "stateMutability": "view",
      "type": "function"
    },
    {
      "inputs": [
        {
          "internalType": "uint256",
          "name": "tokenId",
          "type": "uint256"
        }
      ],
      "name": "tokenURI",
      "outputs": [
        {
          "internalType": "string",
          "name": "",
          "type": "string"
        }
      ],
      "stateMutability": "view",
      "type": "function"
    },
    {
      "inputs": [
        {
          "internalType": "address",
          "name": "from",
          "type": "address"
        },
        {
          "internalType": "address",
          "name": "to",
          "type": "address"
        },
        {
          "internalType": "uint256",
          "name": "tokenId",
          "type": "uint256"
        }
      ],
      "name": "transferFrom",
      "outputs": [],
      "stateMutability": "nonpayable",
      "type": "function"
    }
  ],
  "bytecode": "0x608060405260405180610160016040528061012f81526020016200492161012f91396009908162000031919062000b7e565b506040518060e001604052806040518060400160405280600981526020017f457871756973697465000000000000000000000000000000000000000000000081525081526020016040518060400160405280600981526020017f456e69676d61746963000000000000000000000000000000000000000000000081525081526020016040518060400160405280600c81526020017f42726561746874616b696e67000000000000000000000000000000000000000081525081526020016040518060400160405280600981526020017f5768696d736963616c000000000000000000000000000000000000000000000081525081526020016040518060400160405280600681526020017f536176616765000000000000000000000000000000000000000000000000000081525081526020016040518060400160405280600881526020017f426c69737366756c00000000000000000000000000000000000000000000000081525081526020016040518060400160405280600881526020017f457468657265616c000000000000000000000000000000000000000000000000815250815250600a906007620001ea92919062000817565b506040518060e001604052806040518060400160405280600881526020017f456c657068616e7400000000000000000000000000000000000000000000000081525081526020016040518060400160405280600781526020017f50656e6775696e0000000000000000000000000000000000000000000000000081525081526020016040518060400160405280600781526020017f476972616666650000000000000000000000000000000000000000000000000081525081526020016040518060400160405280600881526020017f4b616e6761726f6f00000000000000000000000000000000000000000000000081525081526020016040518060400160405280600481526020017f4c696f6e0000000000000000000000000000000000000000000000000000000081525081526020016040518060400160405280600781526020017f4f63746f7075730000000000000000000000000000000000000000000000000081525081526020016040518060400160405280600581526020017f4b6f616c61000000000000000000000000000000000000000000000000000000815250815250600b906007620003a392919062000817565b506040518060e001604052806040518060400160405280600581526020017f50697a7a6100000000000000000000000000000000000000000000000000000081525081526020016040518060400160405280600581526020017f537573686900000000000000000000000000000000000000000000000000000081525081526020016040518060400160405280600681526020017f427572676572000000000000000000000000000000000000000000000000000081525081526020016040518060400160405280600581526020017f506173746100000000000000000000000000000000000000000000000000000081525081526020016040518060400160405280600581526020017f5461636f7300000000000000000000000000000000000000000000000000000081525081526020016040518060400160405280600581526020017f53616c616400000000000000000000000000000000000000000000000000000081525081526020016040518060400160405280600981526020017f49636520437265616d0000000000000000000000000000000000000000000000815250815250600c9060076200055c92919062000817565b503480156200056a57600080fd5b5060405162004a8238038062004a82833981810160405281019062000590919062000c9b565b6040518060400160405280600981526020017f5371756172654e465400000000000000000000000000000000000000000000008152506040518060400160405280600681526020017f535155415245000000000000000000000000000000000000000000000000000081525081600090816200060d919062000b7e565b5080600190816200061f919062000b7e565b5050506200065160405180606001604052806032815260200162004a5060329139620006ad60201b62000fdc1760201c565b80600881905550620006a66040518060400160405280601181526020017f536574206d61784e46547320746f2025730000000000000000000000000000008152506008546200075060201b620010751760201c565b5062000dc5565b6200074d81604051602401620006c4919062000d5c565b6040516020818303038152906040527f41304fac000000000000000000000000000000000000000000000000000000007bffffffffffffffffffffffffffffffffffffffffffffffffffffffff19166020820180517bffffffffffffffffffffffffffffffffffffffffffffffffffffffff8381831617835250505050620007f660201b60201c565b50565b620007f282826040516024016200076992919062000d91565b6040516020818303038152906040527fb60e72cc000000000000000000000000000000000000000000000000000000007bffffffffffffffffffffffffffffffffffffffffffffffffffffffff19166020820180517bffffffffffffffffffffffffffffffffffffffffffffffffffffffff8381831617835250505050620007f660201b60201c565b5050565b60006a636f6e736f6c652e6c6f679050600080835160208501845afa505050565b82805482825590600052602060002090810192821562000864579160200282015b828111156200086357825182908162000852919062000b7e565b509160200191906001019062000838565b5b50905062000873919062000877565b5090565b5b808211156200089b57600081816200089191906200089f565b5060010162000878565b5090565b508054620008ad906200096d565b6000825580601f10620008c15750620008e2565b601f016020900490600052602060002090810190620008e19190620008e5565b5b50565b5b8082111562000900576000816000905550600101620008e6565b5090565b600081519050919050565b7f4e487b7100000000000000000000000000000000000000000000000000000000600052604160045260246000fd5b7f4e487b7100000000000000000000000000000000000000000000000000000000600052602260045260246000fd5b600060028204905060018216806200098657607f821691505b6020821081036200099c576200099b6200093e565b5b50919050565b60008190508160005260206000209050919050565b60006020601f8301049050919050565b600082821b905092915050565b60006008830262000a067fffffffffffffffffffffffffffffffffffffffffffffffffffffffffffffffff82620009c7565b62000a128683620009c7565b95508019841693508086168417925050509392505050565b6000819050919050565b6000819050919050565b600062000a5f62000a5962000a538462000a2a565b62000a34565b62000a2a565b9050919050565b6000819050919050565b62000a7b8362000a3e565b62000a9362000a8a8262000a66565b848454620009d4565b825550505050565b600090565b62000aaa62000a9b565b62000ab781848462000a70565b505050565b5b8181101562000adf5762000ad360008262000aa0565b60018101905062000abd565b5050565b601f82111562000b2e5762000af881620009a2565b62000b0384620009b7565b8101602085101562000b13578190505b62000b2b62000b2285620009b7565b83018262000abc565b50505b505050565b600082821c905092915050565b600062000b536000198460080262000b33565b1980831691505092915050565b600062000b6e838362000b40565b9150826002028217905092915050565b62000b898262000904565b67ffffffffffffffff81111562000ba55762000ba46200090f565b5b62000bb182546200096d565b62000bbe82828562000ae3565b600060209050601f83116001811462000bf6576000841562000be1578287015190505b62000bed858262000b60565b86555062000c5d565b601f19841662000c0686620009a2565b60005b8281101562000c305784890151825560018201915060208501945060208101905062000c09565b8683101562000c50578489015162000c4c601f89168262000b40565b8355505b6001600288020188555050505b505050505050565b600080fd5b62000c758162000a2a565b811462000c8157600080fd5b50565b60008151905062000c958162000c6a565b92915050565b60006020828403121562000cb45762000cb362000c65565b5b600062000cc48482850162000c84565b91505092915050565b600082825260208201905092915050565b60005b8381101562000cfe57808201518184015260208101905062000ce1565b60008484015250505050565b6000601f19601f8301169050919050565b600062000d288262000904565b62000d34818562000ccd565b935062000d4681856020860162000cde565b62000d518162000d0a565b840191505092915050565b6000602082019050818103600083015262000d78818462000d1b565b905092915050565b62000d8b8162000a2a565b82525050565b6000604082019050818103600083015262000dad818562000d1b565b905062000dbe602083018462000d80565b9392505050565b613b4c8062000dd56000396000f3fe608060405234801561001057600080fd5b50600436106101215760003560e01c806377bf44ea116100ad578063c575757a11610071578063c575757a1461032c578063c87b56dd1461035c578063de9d132f1461038c578063e3d43b1f14610396578063e985e9c5146103b457610121565b806377bf44ea1461028857806395d89b41146102a6578063a22cb465146102c4578063b187301f146102e0578063b88d4fde1461031057610121565b806323b872dd116100f457806323b872dd146101c05780632de38d68146101dc57806342842e0e1461020c5780636352211e1461022857806370a082311461025857610121565b806301ffc9a71461012657806306fdde0314610156578063081812fc14610174578063095ea7b3146101a4575b600080fd5b610140600480360381019061013b91906123e7565b6103e4565b60405161014d919061242f565b60405180910390f35b61015e610445565b60405161016b91906124da565b60405180910390f35b61018e60048036038101906101899190612532565b6104d7565b60405161019b91906125a0565b60405180910390f35b6101be60048036038101906101b991906125e7565b61051d565b005b6101da60048036038101906101d59190612627565b610634565b005b6101f660048036038101906101f19190612532565b610694565b60405161020391906124da565b60405180910390f35b61022660048036038101906102219190612627565b61078c565b005b610242600480360381019061023d9190612532565b6107ac565b60405161024f91906125a0565b60405180910390f35b610272600480360381019061026d919061267a565b610832565b60405161027f91906126b6565b60405180910390f35b6102906108e9565b60405161029d91906126b6565b60405180910390f35b6102ae6108fa565b6040516102bb91906124da565b60405180910390f35b6102de60048036038101906102d991906126fd565b61098c565b005b6102fa60048036038101906102f59190612532565b6109a2565b60405161030791906124da565b60405180910390f35b61032a60048036038101906103259190612872565b610a9a565b005b61034660048036038101906103419190612532565b610afc565b60405161035391906124da565b60405180910390f35b61037660048036038101906103719190612532565b610bf4565b60405161038391906124da565b60405180910390f35b610394610d06565b005b61039e610f3e565b6040516103ab91906126b6565b60405180910390f35b6103ce60048036038101906103c991906128f5565b610f48565b6040516103db919061242f565b60405180910390f35b6000634906490660e01b7bffffffffffffffffffffffffffffffffffffffffffffffffffffffff1916827bffffffffffffffffffffffffffffffffffffffffffffffffffffffff1916148061043e575061043d82611111565b5b9050919050565b60606000805461045490612964565b80601f016020809104026020016040519081016040528092919081815260200182805461048090612964565b80156104cd5780601f106104a2576101008083540402835291602001916104cd565b820191906000526020600020905b8154815290600101906020018083116104b057829003601f168201915b5050505050905090565b60006104e2826111f3565b6004600083815260200190815260200160002060009054906101000a900473ffffffffffffffffffffffffffffffffffffffff169050919050565b6000610528826107ac565b90508073ffffffffffffffffffffffffffffffffffffffff168373ffffffffffffffffffffffffffffffffffffffff1603610598576040517f08c379a000000000000000000000000000000000000000000000000000000000815260040161058f90612a07565b60405180910390fd5b8073ffffffffffffffffffffffffffffffffffffffff166105b761123e565b73ffffffffffffffffffffffffffffffffffffffff1614806105e657506105e5816105e061123e565b610f48565b5b610625576040517f08c379a000000000000000000000000000000000000000000000000000000000815260040161061c90612a99565b60405180910390fd5b61062f8383611246565b505050565b61064561063f61123e565b826112ff565b610684576040517f08c379a000000000000000000000000000000000000000000000000000000000815260040161067b90612b2b565b60405180910390fd5b61068f838383611394565b505050565b606060006106c86106a48461168d565b6040516020016106b49190612bd3565b60405160208183030381529060405261175b565b9050600a80549050816106db9190612c24565b9050600a81815481106106f1576106f0612c55565b5b90600052602060002001805461070690612964565b80601f016020809104026020016040519081016040528092919081815260200182805461073290612964565b801561077f5780601f106107545761010080835404028352916020019161077f565b820191906000526020600020905b81548152906001019060200180831161076257829003601f168201915b5050505050915050919050565b6107a783838360405180602001604052806000815250610a9a565b505050565b6000806107b88361178e565b9050600073ffffffffffffffffffffffffffffffffffffffff168173ffffffffffffffffffffffffffffffffffffffff1603610829576040517f08c379a000000000000000000000000000000000000000000000000000000000815260040161082090612cd0565b60405180910390fd5b80915050919050565b60008073ffffffffffffffffffffffffffffffffffffffff168273ffffffffffffffffffffffffffffffffffffffff16036108a2576040517f08c379a000000000000000000000000000000000000000000000000000000000815260040161089990612d62565b60405180910390fd5b600360008373ffffffffffffffffffffffffffffffffffffffff1673ffffffffffffffffffffffffffffffffffffffff168152602001908152602001600020549050919050565b60006108f560076117cb565b905090565b60606001805461090990612964565b80601f016020809104026020016040519081016040528092919081815260200182805461093590612964565b80156109825780601f1061095757610100808354040283529160200191610982565b820191906000526020600020905b81548152906001019060200180831161096557829003601f168201915b5050505050905090565b61099e61099761123e565b83836117d9565b5050565b606060006109d66109b28461168d565b6040516020016109c29190612dce565b60405160208183030381529060405261175b565b9050600b80549050816109e99190612c24565b9050600b81815481106109ff576109fe612c55565b5b906000526020600020018054610a1490612964565b80601f0160208091040260200160405190810160405280929190818152602001828054610a4090612964565b8015610a8d5780601f10610a6257610100808354040283529160200191610a8d565b820191906000526020600020905b815481529060010190602001808311610a7057829003601f168201915b5050505050915050919050565b610aab610aa561123e565b836112ff565b610aea576040517f08c379a0000000000000000000000000000000000000000000000000000000008152600401610ae190612b2b565b60405180910390fd5b610af684848484611945565b50505050565b60606000610b30610b0c8461168d565b604051602001610b1c9190612e3c565b60405160208183030381529060405261175b565b9050600c8054905081610b439190612c24565b9050600c8181548110610b5957610b58612c55565b5b906000526020600020018054610b6e90612964565b80601f0160208091040260200160405190810160405280929190818152602001828054610b9a90612964565b8015610be75780601f10610bbc57610100808354040283529160200191610be7565b820191906000526020600020905b815481529060010190602001808311610bca57829003601f168201915b5050505050915050919050565b6060610bff826111f3565b6000600660008481526020019081526020016000208054610c1f90612964565b80601f0160208091040260200160405190810160405280929190818152602001828054610c4b90612964565b8015610c985780601f10610c6d57610100808354040283529160200191610c98565b820191906000526020600020905b815481529060010190602001808311610c7b57829003601f168201915b505050505090506000610ca96119a1565b90506000815103610cbe578192505050610d01565b600082511115610cf3578082604051602001610cdb929190612e5e565b60405160208183030381529060405292505050610d01565b610cfc846119b8565b925050505b919050565b600854610d1360076117cb565b10610d53576040517f08c379a0000000000000000000000000000000000000000000000000000000008152600401610d4a90612ece565b60405180910390fd5b6000610d5f60076117cb565b90506000610d6c82610694565b90506000610d79836109a2565b90506000610d8684610afc565b90506000838383604051602001610d9f93929190612eee565b604051602081830303815290604052905060006009858585604051602001610dca9493929190613003565b60405160208183030381529060405290506000610e0f83610dea84611a20565b604051602001610dfb9291906131a2565b604051602081830303815290604052611a20565b9050600081604051602001610e249190613233565b6040516020818303038152906040529050610e736040518060400160405280601581526020017f0a2d2d2d2d2d2d2d2d2d2d2d2d2d2d2d2d2d2d2d2d0000000000000000000000815250610fdc565b610e7c81610fdc565b610eba6040518060400160405280601581526020017f2d2d2d2d2d2d2d2d2d2d2d2d2d2d2d2d2d2d2d2d0a0000000000000000000000815250610fdc565b610ec43389611bb7565b610ece8882611bd5565b610ed86007611c79565b610efb604051806060016040528060258152602001613ab2602591398933611c8f565b7febb98688741ffa4c7589bf325de30cf7becb63de567842e1ccdb6cb949fdc82c3389604051610f2c929190613255565b60405180910390a15050505050505050565b6000600854905090565b6000600560008473ffffffffffffffffffffffffffffffffffffffff1673ffffffffffffffffffffffffffffffffffffffff16815260200190815260200160002060008373ffffffffffffffffffffffffffffffffffffffff1673ffffffffffffffffffffffffffffffffffffffff16815260200190815260200160002060009054906101000a900460ff16905092915050565b61107281604051602401610ff091906124da565b6040516020818303038152906040527f41304fac000000000000000000000000000000000000000000000000000000007bffffffffffffffffffffffffffffffffffffffffffffffffffffffff19166020820180517bffffffffffffffffffffffffffffffffffffffffffffffffffffffff8381831617835250505050611d2e565b50565b61110d828260405160240161108b92919061327e565b6040516020818303038152906040527fb60e72cc000000000000000000000000000000000000000000000000000000007bffffffffffffffffffffffffffffffffffffffffffffffffffffffff19166020820180517bffffffffffffffffffffffffffffffffffffffffffffffffffffffff8381831617835250505050611d2e565b5050565b60007f80ac58cd000000000000000000000000000000000000000000000000000000007bffffffffffffffffffffffffffffffffffffffffffffffffffffffff1916827bffffffffffffffffffffffffffffffffffffffffffffffffffffffff191614806111dc57507f5b5e139f000000000000000000000000000000000000000000000000000000007bffffffffffffffffffffffffffffffffffffffffffffffffffffffff1916827bffffffffffffffffffffffffffffffffffffffffffffffffffffffff1916145b806111ec57506111eb82611d4f565b5b9050919050565b6111fc81611db9565b61123b576040517f08c379a000000000000000000000000000000000000000000000000000000000815260040161123290612cd0565b60405180910390fd5b50565b600033905090565b816004600083815260200190815260200160002060006101000a81548173ffffffffffffffffffffffffffffffffffffffff021916908373ffffffffffffffffffffffffffffffffffffffff160217905550808273ffffffffffffffffffffffffffffffffffffffff166112b9836107ac565b73ffffffffffffffffffffffffffffffffffffffff167f8c5be1e5ebec7d5bd14f71427d1e84f3dd0314c0f7b2291e5b200ac8c7c3b92560405160405180910390a45050565b60008061130b836107ac565b90508073ffffffffffffffffffffffffffffffffffffffff168473ffffffffffffffffffffffffffffffffffffffff16148061134d575061134c8185610f48565b5b8061138b57508373ffffffffffffffffffffffffffffffffffffffff16611373846104d7565b73ffffffffffffffffffffffffffffffffffffffff16145b91505092915050565b8273ffffffffffffffffffffffffffffffffffffffff166113b4826107ac565b73ffffffffffffffffffffffffffffffffffffffff161461140a576040517f08c379a000000000000000000000000000000000000000000000000000000000815260040161140190613320565b60405180910390fd5b600073ffffffffffffffffffffffffffffffffffffffff168273ffffffffffffffffffffffffffffffffffffffff1603611479576040517f08c379a0000000000000000000000000000000000000000000000000000000008152600401611470906133b2565b60405180910390fd5b6114868383836001611dfa565b8273ffffffffffffffffffffffffffffffffffffffff166114a6826107ac565b73ffffffffffffffffffffffffffffffffffffffff16146114fc576040517f08c379a00000000000000000000000000000000000000000000000000000000081526004016114f390613320565b60405180910390fd5b6004600082815260200190815260200160002060006101000a81549073ffffffffffffffffffffffffffffffffffffffff02191690556001600360008573ffffffffffffffffffffffffffffffffffffffff1673ffffffffffffffffffffffffffffffffffffffff168152602001908152602001600020600082825403925050819055506001600360008473ffffffffffffffffffffffffffffffffffffffff1673ffffffffffffffffffffffffffffffffffffffff16815260200190815260200160002060008282540192505081905550816002600083815260200190815260200160002060006101000a81548173ffffffffffffffffffffffffffffffffffffffff021916908373ffffffffffffffffffffffffffffffffffffffff160217905550808273ffffffffffffffffffffffffffffffffffffffff168473ffffffffffffffffffffffffffffffffffffffff167fddf252ad1be2c89b69c2b068fc378daa952ba7f163c4a11628f55a4df523b3ef60405160405180910390a46116888383836001611e00565b505050565b60606000600161169c84611e06565b01905060008167ffffffffffffffff8111156116bb576116ba612747565b5b6040519080825280601f01601f1916602001820160405280156116ed5781602001600182028036833780820191505090505b509050600082602001820190505b600115611750578080600190039150507f3031323334353637383961626364656600000000000000000000000000000000600a86061a8153600a858161174457611743612bf5565b5b049450600085036116fb575b819350505050919050565b60008160405160200161176e91906133d2565b6040516020818303038152906040528051906020012060001c9050919050565b60006002600083815260200190815260200160002060009054906101000a900473ffffffffffffffffffffffffffffffffffffffff169050919050565b600081600001549050919050565b8173ffffffffffffffffffffffffffffffffffffffff168373ffffffffffffffffffffffffffffffffffffffff1603611847576040517f08c379a000000000000000000000000000000000000000000000000000000000815260040161183e90613435565b60405180910390fd5b80600560008573ffffffffffffffffffffffffffffffffffffffff1673ffffffffffffffffffffffffffffffffffffffff16815260200190815260200160002060008473ffffffffffffffffffffffffffffffffffffffff1673ffffffffffffffffffffffffffffffffffffffff16815260200190815260200160002060006101000a81548160ff0219169083151502179055508173ffffffffffffffffffffffffffffffffffffffff168373ffffffffffffffffffffffffffffffffffffffff167f17307eab39ab6107e8899845ad3d59bd9653f200f220920489ca2b5937696c3183604051611938919061242f565b60405180910390a3505050565b611950848484611394565b61195c84848484611f59565b61199b576040517f08c379a0000000000000000000000000000000000000000000000000000000008152600401611992906134c7565b60405180910390fd5b50505050565b606060405180602001604052806000815250905090565b60606119c3826111f3565b60006119cd6119a1565b905060008151116119ed5760405180602001604052806000815250611a18565b806119f78461168d565b604051602001611a08929190612e5e565b6040516020818303038152906040525b915050919050565b606060008251905060008103611a485760405180602001604052806000815250915050611bb2565b60006003600283611a599190613516565b611a63919061354a565b6004611a6f919061357b565b90506000602082611a809190613516565b67ffffffffffffffff811115611a9957611a98612747565b5b6040519080825280601f01601f191660200182016040528015611acb5781602001600182028036833780820191505090505b5090506000604051806060016040528060408152602001613ad7604091399050600181016020830160005b86811015611b6f5760038101905062ffffff818a015116603f8160121c168401518060081b905060ff603f83600c1c1686015116810190508060081b905060ff603f8360061c1686015116810190508060081b905060ff603f831686015116810190508060e01b90508084526004840193505050611af6565b506003860660018114611b895760028114611b9957611ba4565b613d3d60f01b6002830352611ba4565b603d60f81b60018303525b508484525050819450505050505b919050565b611bd18282604051806020016040528060008152506120e0565b5050565b611bde82611db9565b611c1d576040517f08c379a0000000000000000000000000000000000000000000000000000000008152600401611c149061362f565b60405180910390fd5b80600660008481526020019081526020016000209081611c3d91906137e6565b507ff8e1a15aba9398e019f0b49df1a4fde98ee17ae345cb5f6b5e2c27f5033e8ce782604051611c6d91906126b6565b60405180910390a15050565b6001816000016000828254019250508190555050565b611d29838383604051602401611ca7939291906138b8565b6040516020818303038152906040527f1c7ec448000000000000000000000000000000000000000000000000000000007bffffffffffffffffffffffffffffffffffffffffffffffffffffffff19166020820180517bffffffffffffffffffffffffffffffffffffffffffffffffffffffff8381831617835250505050611d2e565b505050565b60006a636f6e736f6c652e6c6f679050600080835160208501845afa505050565b60007f01ffc9a7000000000000000000000000000000000000000000000000000000007bffffffffffffffffffffffffffffffffffffffffffffffffffffffff1916827bffffffffffffffffffffffffffffffffffffffffffffffffffffffff1916149050919050565b60008073ffffffffffffffffffffffffffffffffffffffff16611ddb8361178e565b73ffffffffffffffffffffffffffffffffffffffff1614159050919050565b50505050565b50505050565b600080600090507a184f03e93ff9f4daa797ed6e38ed64bf6a1f0100000000000000008310611e64577a184f03e93ff9f4daa797ed6e38ed64bf6a1f0100000000000000008381611e5a57611e59612bf5565b5b0492506040810190505b6d04ee2d6d415b85acef81000000008310611ea1576d04ee2d6d415b85acef81000000008381611e9757611e96612bf5565b5b0492506020810190505b662386f26fc100008310611ed057662386f26fc100008381611ec657611ec5612bf5565b5b0492506010810190505b6305f5e1008310611ef9576305f5e1008381611eef57611eee612bf5565b5b0492506008810190505b6127108310611f1e576127108381611f1457611f13612bf5565b5b0492506004810190505b60648310611f415760648381611f3757611f36612bf5565b5b0492506002810190505b600a8310611f50576001810190505b80915050919050565b6000611f7a8473ffffffffffffffffffffffffffffffffffffffff1661213b565b156120d3578373ffffffffffffffffffffffffffffffffffffffff1663150b7a02611fa361123e565b8786866040518563ffffffff1660e01b8152600401611fc5949392919061394b565b6020604051808303816000875af192505050801561200157506040513d601f19601f82011682018060405250810190611ffe91906139ac565b60015b612083573d8060008114612031576040519150601f19603f3d011682016040523d82523d6000602084013e612036565b606091505b50600081510361207b576040517f08c379a0000000000000000000000000000000000000000000000000000000008152600401612072906134c7565b60405180910390fd5b805181602001fd5b63150b7a0260e01b7bffffffffffffffffffffffffffffffffffffffffffffffffffffffff1916817bffffffffffffffffffffffffffffffffffffffffffffffffffffffff1916149150506120d8565b600190505b949350505050565b6120ea838361215e565b6120f76000848484611f59565b612136576040517f08c379a000000000000000000000000000000000000000000000000000000000815260040161212d906134c7565b60405180910390fd5b505050565b6000808273ffffffffffffffffffffffffffffffffffffffff163b119050919050565b600073ffffffffffffffffffffffffffffffffffffffff168273ffffffffffffffffffffffffffffffffffffffff16036121cd576040517f08c379a00000000000000000000000000000000000000000000000000000000081526004016121c490613a25565b60405180910390fd5b6121d681611db9565b15612216576040517f08c379a000000000000000000000000000000000000000000000000000000000815260040161220d90613a91565b60405180910390fd5b612224600083836001611dfa565b61222d81611db9565b1561226d576040517f08c379a000000000000000000000000000000000000000000000000000000000815260040161226490613a91565b60405180910390fd5b6001600360008473ffffffffffffffffffffffffffffffffffffffff1673ffffffffffffffffffffffffffffffffffffffff16815260200190815260200160002060008282540192505081905550816002600083815260200190815260200160002060006101000a81548173ffffffffffffffffffffffffffffffffffffffff021916908373ffffffffffffffffffffffffffffffffffffffff160217905550808273ffffffffffffffffffffffffffffffffffffffff16600073ffffffffffffffffffffffffffffffffffffffff167fddf252ad1be2c89b69c2b068fc378daa952ba7f163c4a11628f55a4df523b3ef60405160405180910390a4612377600083836001611e00565b5050565b6000604051905090565b600080fd5b600080fd5b60007fffffffff0000000000000000000000000000000000000000000000000000000082169050919050565b6123c48161238f565b81146123cf57600080fd5b50565b6000813590506123e1816123bb565b92915050565b6000602082840312156123fd576123fc612385565b5b600061240b848285016123d2565b91505092915050565b60008115159050919050565b61242981612414565b82525050565b60006020820190506124446000830184612420565b92915050565b600081519050919050565b600082825260208201905092915050565b60005b83811015612484578082015181840152602081019050612469565b60008484015250505050565b6000601f19601f8301169050919050565b60006124ac8261244a565b6124b68185612455565b93506124c6818560208601612466565b6124cf81612490565b840191505092915050565b600060208201905081810360008301526124f481846124a1565b905092915050565b6000819050919050565b61250f816124fc565b811461251a57600080fd5b50565b60008135905061252c81612506565b92915050565b60006020828403121561254857612547612385565b5b60006125568482850161251d565b91505092915050565b600073ffffffffffffffffffffffffffffffffffffffff82169050919050565b600061258a8261255f565b9050919050565b61259a8161257f565b82525050565b60006020820190506125b56000830184612591565b92915050565b6125c48161257f565b81146125cf57600080fd5b50565b6000813590506125e1816125bb565b92915050565b600080604083850312156125fe576125fd612385565b5b600061260c858286016125d2565b925050602061261d8582860161251d565b9150509250929050565b6000806000606084860312156126405761263f612385565b5b600061264e868287016125d2565b935050602061265f868287016125d2565b92505060406126708682870161251d565b9150509250925092565b6000602082840312156126905761268f612385565b5b600061269e848285016125d2565b91505092915050565b6126b0816124fc565b82525050565b60006020820190506126cb60008301846126a7565b92915050565b6126da81612414565b81146126e557600080fd5b50565b6000813590506126f7816126d1565b92915050565b6000806040838503121561271457612713612385565b5b6000612722858286016125d2565b9250506020612733858286016126e8565b9150509250929050565b600080fd5b600080fd5b7f4e487b7100000000000000000000000000000000000000000000000000000000600052604160045260246000fd5b61277f82612490565b810181811067ffffffffffffffff8211171561279e5761279d612747565b5b80604052505050565b60006127b161237b565b90506127bd8282612776565b919050565b600067ffffffffffffffff8211156127dd576127dc612747565b5b6127e682612490565b9050602081019050919050565b82818337600083830152505050565b6000612815612810846127c2565b6127a7565b90508281526020810184848401111561283157612830612742565b5b61283c8482856127f3565b509392505050565b600082601f8301126128595761285861273d565b5b8135612869848260208601612802565b91505092915050565b6000806000806080858703121561288c5761288b612385565b5b600061289a878288016125d2565b94505060206128ab878288016125d2565b93505060406128bc8782880161251d565b925050606085013567ffffffffffffffff8111156128dd576128dc61238a565b5b6128e987828801612844565b91505092959194509250565b6000806040838503121561290c5761290b612385565b5b600061291a858286016125d2565b925050602061292b858286016125d2565b9150509250929050565b7f4e487b7100000000000000000000000000000000000000000000000000000000600052602260045260246000fd5b6000600282049050600182168061297c57607f821691505b60208210810361298f5761298e612935565b5b50919050565b7f4552433732313a20617070726f76616c20746f2063757272656e74206f776e6560008201527f7200000000000000000000000000000000000000000000000000000000000000602082015250565b60006129f1602183612455565b91506129fc82612995565b604082019050919050565b60006020820190508181036000830152612a20816129e4565b9050919050565b7f4552433732313a20617070726f76652063616c6c6572206973206e6f7420746f60008201527f6b656e206f776e6572206f7220617070726f76656420666f7220616c6c000000602082015250565b6000612a83603d83612455565b9150612a8e82612a27565b604082019050919050565b60006020820190508181036000830152612ab281612a76565b9050919050565b7f4552433732313a2063616c6c6572206973206e6f7420746f6b656e206f776e6560008201527f72206f7220617070726f76656400000000000000000000000000000000000000602082015250565b6000612b15602d83612455565b9150612b2082612ab9565b604082019050919050565b60006020820190508181036000830152612b4481612b08565b9050919050565b600081905092915050565b7f46495253545f574f524400000000000000000000000000000000000000000000600082015250565b6000612b8c600a83612b4b565b9150612b9782612b56565b600a82019050919050565b6000612bad8261244a565b612bb78185612b4b565b9350612bc7818560208601612466565b80840191505092915050565b6000612bde82612b7f565b9150612bea8284612ba2565b915081905092915050565b7f4e487b7100000000000000000000000000000000000000000000000000000000600052601260045260246000fd5b6000612c2f826124fc565b9150612c3a836124fc565b925082612c4a57612c49612bf5565b5b828206905092915050565b7f4e487b7100000000000000000000000000000000000000000000000000000000600052603260045260246000fd5b7f4552433732313a20696e76616c696420746f6b656e2049440000000000000000600082015250565b6000612cba601883612455565b9150612cc582612c84565b602082019050919050565b60006020820190508181036000830152612ce981612cad565b9050919050565b7f4552433732313a2061646472657373207a65726f206973206e6f74206120766160008201527f6c6964206f776e65720000000000000000000000000000000000000000000000602082015250565b6000612d4c602983612455565b9150612d5782612cf0565b604082019050919050565b60006020820190508181036000830152612d7b81612d3f565b9050919050565b7f5345434f4e445f574f5244000000000000000000000000000000000000000000600082015250565b6000612db8600b83612b4b565b9150612dc382612d82565b600b82019050919050565b6000612dd982612dab565b9150612de58284612ba2565b915081905092915050565b7f54484952445f574f524400000000000000000000000000000000000000000000600082015250565b6000612e26600a83612b4b565b9150612e3182612df0565b600a82019050919050565b6000612e4782612e19565b9150612e538284612ba2565b915081905092915050565b6000612e6a8285612ba2565b9150612e768284612ba2565b91508190509392505050565b7f6d6178696d756d206e756d626572206f66204e46547320726561636865640000600082015250565b6000612eb8601e83612455565b9150612ec382612e82565b602082019050919050565b60006020820190508181036000830152612ee781612eab565b9050919050565b6000612efa8286612ba2565b9150612f068285612ba2565b9150612f128284612ba2565b9150819050949350505050565b60008190508160005260206000209050919050565b60008154612f4181612964565b612f4b8186612b4b565b94506001821660008114612f665760018114612f7b57612fae565b60ff1983168652811515820286019350612fae565b612f8485612f1f565b60005b83811015612fa657815481890152600182019150602081019050612f87565b838801955050505b50505092915050565b7f3c2f746578743e3c2f7376673e00000000000000000000000000000000000000600082015250565b6000612fed600d83612b4b565b9150612ff882612fb7565b600d82019050919050565b600061300f8287612f34565b915061301b8286612ba2565b91506130278285612ba2565b91506130338284612ba2565b915061303e82612fe0565b915081905095945050505050565b7f7b226e616d65223a202200000000000000000000000000000000000000000000600082015250565b6000613082600a83612b4b565b915061308d8261304c565b600a82019050919050565b7f222c20226465736372697074696f6e223a20224120686967686c79206163636c60008201527f61696d656420636f6c6c656374696f6e206f6620737175617265732e222c202260208201527f696d616765223a2022646174613a696d6167652f7376672b786d6c3b6261736560408201527f36342c0000000000000000000000000000000000000000000000000000000000606082015250565b6000613140606383612b4b565b915061314b82613098565b606382019050919050565b7f227d000000000000000000000000000000000000000000000000000000000000600082015250565b600061318c600283612b4b565b915061319782613156565b600282019050919050565b60006131ad82613075565b91506131b98285612ba2565b91506131c482613133565b91506131d08284612ba2565b91506131db8261317f565b91508190509392505050565b7f646174613a6170706c69636174696f6e2f6a736f6e3b6261736536342c000000600082015250565b600061321d601d83612b4b565b9150613228826131e7565b601d82019050919050565b600061323e82613210565b915061324a8284612ba2565b915081905092915050565b600060408201905061326a6000830185612591565b61327760208301846126a7565b9392505050565b6000604082019050818103600083015261329881856124a1565b90506132a760208301846126a7565b9392505050565b7f4552433732313a207472616e736665722066726f6d20696e636f72726563742060008201527f6f776e6572000000000000000000000000000000000000000000000000000000602082015250565b600061330a602583612455565b9150613315826132ae565b604082019050919050565b60006020820190508181036000830152613339816132fd565b9050919050565b7f4552433732313a207472616e7366657220746f20746865207a65726f2061646460008201527f7265737300000000000000000000000000000000000000000000000000000000602082015250565b600061339c602483612455565b91506133a782613340565b604082019050919050565b600060208201905081810360008301526133cb8161338f565b9050919050565b60006133de8284612ba2565b915081905092915050565b7f4552433732313a20617070726f766520746f2063616c6c657200000000000000600082015250565b600061341f601983612455565b915061342a826133e9565b602082019050919050565b6000602082019050818103600083015261344e81613412565b9050919050565b7f4552433732313a207472616e7366657220746f206e6f6e20455243373231526560008201527f63656976657220696d706c656d656e7465720000000000000000000000000000602082015250565b60006134b1603283612455565b91506134bc82613455565b604082019050919050565b600060208201905081810360008301526134e0816134a4565b9050919050565b7f4e487b7100000000000000000000000000000000000000000000000000000000600052601160045260246000fd5b6000613521826124fc565b915061352c836124fc565b9250828201905080821115613544576135436134e7565b5b92915050565b6000613555826124fc565b9150613560836124fc565b9250826135705761356f612bf5565b5b828204905092915050565b6000613586826124fc565b9150613591836124fc565b925082820261359f816124fc565b915082820484148315176135b6576135b56134e7565b5b5092915050565b7f45524337323155524953746f726167653a2055524920736574206f66206e6f6e60008201527f6578697374656e7420746f6b656e000000000000000000000000000000000000602082015250565b6000613619602e83612455565b9150613624826135bd565b604082019050919050565b600060208201905081810360008301526136488161360c565b9050919050565b60006020601f8301049050919050565b600082821b905092915050565b60006008830261369c7fffffffffffffffffffffffffffffffffffffffffffffffffffffffffffffffff8261365f565b6136a6868361365f565b95508019841693508086168417925050509392505050565b6000819050919050565b60006136e36136de6136d9846124fc565b6136be565b6124fc565b9050919050565b6000819050919050565b6136fd836136c8565b613711613709826136ea565b84845461366c565b825550505050565b600090565b613726613719565b6137318184846136f4565b505050565b5b818110156137555761374a60008261371e565b600181019050613737565b5050565b601f82111561379a5761376b81612f1f565b6137748461364f565b81016020851015613783578190505b61379761378f8561364f565b830182613736565b50505b505050565b600082821c905092915050565b60006137bd6000198460080261379f565b1980831691505092915050565b60006137d683836137ac565b9150826002028217905092915050565b6137ef8261244a565b67ffffffffffffffff81111561380857613807612747565b5b6138128254612964565b61381d828285613759565b600060209050601f831160018114613850576000841561383e578287015190505b61384885826137ca565b8655506138b0565b601f19841661385e86612f1f565b60005b8281101561388657848901518255600182019150602085019450602081019050613861565b868310156138a3578489015161389f601f8916826137ac565b8355505b6001600288020188555050505b505050505050565b600060608201905081810360008301526138d281866124a1565b90506138e160208301856126a7565b6138ee6040830184612591565b949350505050565b600081519050919050565b600082825260208201905092915050565b600061391d826138f6565b6139278185613901565b9350613937818560208601612466565b61394081612490565b840191505092915050565b60006080820190506139606000830187612591565b61396d6020830186612591565b61397a60408301856126a7565b818103606083015261398c8184613912565b905095945050505050565b6000815190506139a6816123bb565b92915050565b6000602082840312156139c2576139c1612385565b5b60006139d084828501613997565b91505092915050565b7f4552433732313a206d696e7420746f20746865207a65726f2061646472657373600082015250565b6000613a0f602083612455565b9150613a1a826139d9565b602082019050919050565b60006020820190508181036000830152613a3e81613a02565b9050919050565b7f4552433732313a20746f6b656e20616c7265616479206d696e74656400000000600082015250565b6000613a7b601c83612455565b9150613a8682613a45565b602082019050919050565b60006020820190508181036000830152613aaa81613a6e565b905091905056fe416e204e465420772f20494420257320686173206265656e206d696e74656420746f2025734142434445464748494a4b4c4d4e4f505152535455565758595a6162636465666768696a6b6c6d6e6f707172737475767778797a303132333435363738392b2fa2646970667358221220d349b0afbf380222b50d37f409c96f4b706fcacd643a7b24e9951352eecf9ddc64736f6c634300081200333c73766720786d6c6e733d27687474703a2f2f7777772e77332e6f72672f323030302f73766727207072657365727665417370656374526174696f3d27784d696e594d696e206d656574272076696577426f783d273020302033353020333530273e3c7374796c653e2e62617365207b2066696c6c3a2077686974653b20666f6e742d66616d696c793a2073657269663b20666f6e742d73697a653a20323470783b207d3c2f7374796c653e3c726563742077696474683d273130302527206865696768743d2731303025272066696c6c3d27626c61636b27202f3e3c7465787420783d273530252720793d273530252720636c6173733d27626173652720646f6d696e616e742d626173656c696e653d276d6964646c652720746578742d616e63686f723d276d6964646c65273e54686973206973206d79204e465420636f6e74726163742e2046696e616c6c79206261636b20746f206275696c64696e6721",
  "linkReferences": {},
  "deployedLinkReferences": {}
}